:02000000672B6C
:10000800FF00030E83010317A0000A0883160313D9
:10001800EF008A0170088312A0008316ED0A6D08AC
:10002800093A031D2428EE0AED018312EE0983160E
:100038006E08783A031D2428EE0101308312EA0085
:100048008312273081000B112008F00083166F08F7
:100058008A0083120317200E8300FF0E7F0E09000B
:04006800000008008C
:10006C00103083120313FD00FD0B3A28000008002A
:10007C00083083120313FC002330FD00FD0B4428D1
:06008C00FC0B44280800F3
:1000920083120317AC1B4F288613502886172C1B7C
:1000A2005428061355280617AC1A592886125A28BE
:1000B20086162C1A5E2806125F280616831603136C
:1000C2006518662883128514682883128510051422
:1000D200342005100317AC1970288613712886176F
:1000E2002C197528061376280617AC187A2886125A
:1000F2007B2886162C187F2806128028061683165F
:1001020003136518872883128514892883128510A2
:100112000514342005108316651C91283E20922870
:04012200362008007B
:10012600A528803083120317A900B828C030A9007B
:10013600B8289430A900B828D430A900B82880304F
:10014600A900B828831203172908013A031994282D
:100156002908023A031999282908033A03199C2801
:100166002908043A03199F28A2282A03F00029081F
:10017600F0077008A900831603136514700883122C
:100186000317AC00492083166510831203172B084A
:0A019600AC00492083166514080030
:1001A000831603136510831203172908AC00492036
:0601B0008316651408002F
:1001B600831203172508831603139B009C131C1434
:0601C6001A08F000080019
:1001CC00F828803083120317A5000B29C030A50036
:1001DC000B299430A5000B29D430A5000B298030B5
:1001EC00A5000B29831203172508013A0319E728E8
:1001FC002508023A0319EC282508033A0319EF28BD
:10020C002508043A0319F228F5282603F0002508DE
:10021C00F0077008A5007008AC0049208316651023
:10022C0083120317A8012808270784000008031964
:10023C0029292808270784000008A900D020831248
:0E024C000317A80A1929831603136514080066
:10025A00023083120317A9002508AA0030302607A6
:06026A00AB009320080028
:10027000831603139C1C3E290000382983120317A0
:100280002308831603139B00831203172408831685
:1002900003139A009C131C150B08F0008B135530A8
:1002A0009D00AA309D009C14F01B58298B135929DE
:0602B0008B171C11080071
:1002B600831203136D08031D98298A290130031739
:1002C600AC00492001300317A5000130A600AD306F
:1002D600A700E6209729013083120317AC004920B6
:1002E60001300317A5000130A600BB30A700E620A9
:1002F6009729013083120317AC00492001300317F8
:10030600A5000130A6005D30A700E62097298312DC
:100316005208003A031961295208013A03196E2955
:100326005208023A03197C29B62983128619A7298D
:1003360001300317AC00492001300317A500013036
:10034600A600A030A700E6208312861DB62901303C
:100356000317AC00492001300317A5000130A600A1
:080366004630A700E620080064
:0E036E008312031722088A002108820008006B
:10037C0083120313EB0105306B0203181B2A52087E
:10038C00003A031DDE2902300317A5000130A60038
:10039C002C30A700E62083126B0821070317A50059
:1003AC0003136B08533E840000080317A6002D218D
:1003BC0083125208013A031DF82902300317A500D5
:1003CC000130A6002230A700E62083126B0821071B
:1003DC000317A50003136B08583E8400000803178D
:1003EC00A6002D2183125208023A031D182A02304E
:1003FC000317A5000130A6003630A700E620083010
:10040C0083120317A50003133E080317A6002D2122
:10041C00023083120317A5000930A6003F30A70055
:0C042C00E6201B2A8312EB0AC1290800FD
:1004380083120317A501DB2070088312D300013053
:100448000317A500DB2070088312D40002300317BD
:10045800A500DB2070088312D60003300317A5001F
:10046800DB2070088312D70004300317A500DB20B7
:1004780070088312D80005300317A500DB20700828
:100488008312D90006300317A500DB2070088312F9
:10049800DB0007300317A500DB2070088312DC009F
:0204A80008004A
:1004AA008312031306150330FB008A30FC00553013
:1004BA00FD00FD0B5E2AFC0B5E2AFB0B5E2A000088
:0604CA000000061108000D
:1004D00083120313F8010830FC00700DF80D740846
:1004E000F8020318752AF8070310F00DFC0B6D2AAB
:0204F000080002
:1004F200831203137008F100F0010830FC00710848
:10050200F40C0318882AFC0B812AF1010034031031
:100512008D2AF40C0318F107F10CF00CFC0B8A2A5B
:020522000800CF
:100524008B018312031386110B11ED01FF30EE00D2
:0C053400D2015B211C22BE2155220800D0
:1005400083120317A301031353080317A4003821D0
:10055000013083120317A300031354080317A400E8
:100560003821023083120317A30003135608031720
:10057000A4003821033083120317A3000313570884
:100580000317A4003821043083120317A3000313B8
:1005900058080317A4003821053083120317A3005D
:1005A000031359080317A4003821063083120317D8
:1005B000A30003135B080317A4003821073083123C
:1005C0000317A30003135C080317A40038210830A5
:0E05D00083120317A3000130A4003821080095
:1005DE00B7218A110A128000840AA10A0319A20AFD
:0805EE00F003031DEF2A0800D1
:1005F600023083120313FB008630FC009930FD00A5
:0E060600FD0B032BFC0B032BFB0B032B08003F
:1006140083120313EC0105306C020318172B1030FE
:0C0624000317AC004920EC0A0D2B080065
:1006300083160313051085100612861206138613FF
:1006400083120510851086130613861206123E20AB
:100650003E203E20861606160514342005103E2046
:100660000514342005103E200514342005103E20CA
:1006700006120514342005103E2005143420051000
:10068000861286170514342005103E2086130616A0
:1006900005143420051006120514342005103E20E0
:1006A00005143420051006160514342005103E20CC
:1006B000061205143420051086170617861606162E
:0E06C0000514342005103E2083166514080032
:1006CE00CE260730831203139F003C30831685001D
:1006DE00013086008312860185018611ED01831695
:1006EE00EB01EC01E901EA01ED01EE011823013005
:1006FE0083120317AC0049200C300317AC004920BD
:10070E0001300317A5000130A600D430A700E62063
:10071E00023083120317A5000130A600C930A700CE
:10072E00E6208312EB0101306B020318A12BFB2292
:10073E00EB0A9A2B01300317AC0049205B210830DD
:10074E0083120317A500DB207008013A031DB02B9E
:10075E001C22BE21831203130519B12C6D08031D33
:10076E00B12CFB2283166B08031DC62B8312D20AF3
:10077E005208023C0318C42BD2015B21BE21831602
:10078E0003136B080319B12C83125208003A031D90
:10079E003F2C83166C08533EF10071088400000A4A
:1007AE00F00071088400700880006C08533E8400CD
:1007BE000008E800182C6808093C0318EA2B6C089E
:1007CE00533E84008001302C6808093C0318F32B3B
:1007DE006C08533E84008001302C6808053C0318D9
:1007EE00FC2B6C08533E84008001302C6808093CB9
:1007FE000318052C6C08533E84008001302C6808C9
:10080E00053C03180E2C6C08533E84008001302CDE
:10081E006808093C0318172C6C08533E84008001AD
:10082E00302C6C08003A0319E22B6C08013A0319BC
:10083E00EB2B6C08033A0319F42B6C08043A0319DA
:10084E00FD2B6C08063A0319062C6C08073A03199F
:10085E000F2C6C08831221070317A50083160313B0
:10086E006C08533E8400000883120317A6002D2146
:10087E0083125208013A031D992C83166C08583EB8
:10088E00F10071088400000AF000710884007008FD
:10089E0080006C08583E84000008E8007A2C680836
:1008AE00093C03185E2C6C08583E840080018A2C8B
:1008BE006808093C0318672C6C08583E84008001B8
:1008CE008A2C6808053C0318702C6C08583E84006E
:1008DE0080018A2C6808093C0318792C6C08583E54
:1008EE00840080018A2C6C08003A0319562C6C087F
:1008FE00013A03195F2C6C08033A0319682C6C0833
:10090E00043A0319712C6C08831221070317A500F2
:10091E00831603136C08583E8400000883120317D5
:10092E00A6002D2183125208023A031DAC2CBE0ADA
:10093E003E08013C0318A42CBE0108300317A50085
:10094E0003133E080317A6002D2110308312031740
:10095E00AC00492083128519042D6D08031D042D4A
:10096E00FB2201308316EB00023083125202031871
:10097E00EE2C831669080319E22CEC0A6C08023A75
:10098E00031DD02C143083120317AC00492083169C
:10099E00EC0A6C08043C0318DD2C14308312031788
:1009AE00AC0049208316EC010A23E22C831214308A
:1009BE000317AC00492083166908031DED2C013086
:1009CE00E9000A230E300317AC004920042D8316CC
:1009DE006908031D042D0130E9008312EC01073074
:1009EE006C020318002D10300317AC004920EC0ADE
:1009FE00F62C0E300317AC0049208312051A162D63
:100A0E0083166B080319162DFB228316EB01E901E1
:100A1E00EC01BE210C3083120317AC004920831267
:100A2E0006183C2D83166B08031D3C2DFB22342D1E
:100A3E0055220130ED005B21073083160313810030
:100A4E00273083128100A0308B000B11D201EE01F2
:100A5E00BE21A0223C2D92223C2D6D08003A031996
:100A6E001F2D6D08013A0319322D83126D080319DB
:100A7E00392E5308F0000A30F4007922540870071A
:100A8E00EF005608F0000A30F4007922570870077C
:100A9E008316E40083125808F0000A30F40079221D
:100AAE00590870078316E60083125B08F0000A30BF
:100ABE00F40079225C0870078316E700802D02305F
:100ACE0083120317A9000230031321070317AA008C
:100ADE002030AB009320892D023083120317A9001A
:100AEE000230031321070317AA003A30AB009320FC
:100AFE00892D83126E08003A0319662D6E08FF3A8F
:100B0E000319732D83126F08031DA52D8316640818
:100B1E00031DA52D83128619A52D83166608031DA8
:100B2E009C2D6708031D9C2DA42D83128615013064
:100B3E00D2005B21BE215522A52D92228316660876
:100B4E00031DBC2D6708031DBC2D8312861DBC2DF5
:100B5E003E08013A031DBA2D86111C22D2015B21DB
:100B6E00BE215522BC2D9222552283126A080319EA
:100B7E00392E2F2E83166408003A031DD12D8312B1
:100B8E006F08003C0318D12D3B308316E40083120E
:100B9E00EF03D62D831664080319D62DE4030A300D
:100BAE00F40083126F08F00068227008D3000A3038
:100BBE00F4006F08F00068227808F0007008D40086
:100BCE000A30F40083166408F00068227008D6001C
:100BDE000A30F40083166408F00068227808F000EA
:100BEE007008D700372E83166708003A031D072EAC
:100BFE006608003C0318072E3B30E700E6030B2E79
:100C0E00670803190B2EE7030A30F4006608F0009C
:100C1E0068227008D8000A30F40083166608F000C7
:100C2E0068227808F0007008D9000A30F4008316A4
:100C3E006708F00068227008DB000A30F4008316A3
:100C4E006708F00068227808F0007008DC00372E84
:100C5E005208003A0319C12D5208013A0319FA2D10
:080C6E00EA01BE21B12B3A2E70
:100D9C0021308400493083120313F00040300317D4
:100DAC00A1000630A200EF22A0308400293083126B
:100DBC000313F00089300317A1000630A200EF22C4
:100DCC006A308400013083120313F00003300317E0
:100DDC00A1000030A200EF22C93084001B30831226
:100DEC000313F000B2300317A1000630A200EF226B
:020DFC000800ED
:020006000034C4
:020C80000A3434
:100C8200203474342D346F346E34203420343D34A7
:040C920020340034D6
:100C9600203474342D346F346634663420343D3455
:040CA60020340034C2
:100CAA00203459342F344E3420343D342034003427
:020CBA00003404
:0E0CBC002034203420342034203420340034FE
:100CCA004434653476346934633465343A342034D0
:080CDA004F344E342134003484
:020CE2000034DC
:0A0CE400003400340A3400340034F8
:0A0CEE00003400340A3400340034EE
:100CF8003E34543469346D346534723420344334AA
:0A0D0800793463346C346534003430
:100D12004434653476346934633465343A34203487
:0A0D22004F344634463421340034C7
:100D2C003E3453346534743420344F3446344634B2
:0C0D3C002034743469346D3465340034A4
:100D48003E3453346534743420344F344E342034B4
:0C0D5800743469346D3465342034003488
:100D6400543469346D346534723420345634313437
:060D74002E34303400347F
:100D7A005034493443342D34623461347334653425
:100D8A0064342034523465346C3461347934003438
:02400E006A2125
:00000001FF
